{
  "contractName": "Denemeler",
  "abi": [
    {
      "constant": false,
      "inputs": [
        {
          "name": "_title",
          "type": "string"
        },
        {
          "name": "_candNames",
          "type": "bytes32[]"
        },
        {
          "name": "_voters",
          "type": "address[]"
        },
        {
          "name": "_voterCount",
          "type": "uint256"
        },
        {
          "name": "_start",
          "type": "uint256"
        },
        {
          "name": "_end",
          "type": "uint256"
        }
      ],
      "name": "createElection",
      "outputs": [],
      "payable": false,
      "stateMutability": "nonpayable",
      "type": "function",
      "signature": "0xcb0d908e"
    },
    {
      "constant": false,
      "inputs": [
        {
          "name": "_elecID",
          "type": "uint256"
        },
        {
          "name": "_candId",
          "type": "uint256"
        },
        {
          "name": "_voter",
          "type": "address"
        }
      ],
      "name": "vote",
      "outputs": [],
      "payable": false,
      "stateMutability": "nonpayable",
      "type": "function",
      "signature": "0x50d91583"
    },
    {
      "constant": true,
      "inputs": [],
      "name": "getNextElectionId",
      "outputs": [
        {
          "name": "",
          "type": "uint256"
        }
      ],
      "payable": false,
      "stateMutability": "view",
      "type": "function",
      "signature": "0x5066bd71"
    },
    {
      "constant": true,
      "inputs": [
        {
          "name": "_elecID",
          "type": "uint256"
        },
        {
          "name": "_candidateID",
          "type": "uint256"
        }
      ],
      "name": "getCandidateName",
      "outputs": [
        {
          "name": "",
          "type": "bytes32"
        },
        {
          "name": "",
          "type": "uint256"
        },
        {
          "name": "",
          "type": "uint256"
        },
        {
          "name": "",
          "type": "uint256"
        }
      ],
      "payable": false,
      "stateMutability": "view",
      "type": "function",
      "signature": "0xb024419e"
    },
    {
      "constant": true,
      "inputs": [
        {
          "name": "_elecID",
          "type": "uint256"
        }
      ],
      "name": "getCandidateCount",
      "outputs": [
        {
          "name": "",
          "type": "uint256"
        }
      ],
      "payable": false,
      "stateMutability": "view",
      "type": "function",
      "signature": "0x26f6a2aa"
    }
  ],
  "bytecode": "0x60806040526000805534801561001457600080fd5b50610c43806100246000396000f3fe60806040526004361061006d576000357c0100000000000000000000000000000000000000000000000000000000900463ffffffff16806326f6a2aa146100725780635066bd71146100c157806350d91583146100ec578063b024419e14610151578063cb0d908e146101bf575b600080fd5b34801561007e57600080fd5b506100ab6004803603602081101561009557600080fd5b81019080803590602001909291905050506103cd565b6040518082815260200191505060405180910390f35b3480156100cd57600080fd5b506100d66103f0565b6040518082815260200191505060405180910390f35b3480156100f857600080fd5b5061014f6004803603606081101561010f57600080fd5b810190808035906020019092919080359060200190929190803573ffffffffffffffffffffffffffffffffffffffff1690602001909291905050506103f9565b005b34801561015d57600080fd5b506101946004803603604081101561017457600080fd5b81019080803590602001909291908035906020019092919050505061064e565b6040518085815260200184815260200183815260200182815260200194505050505060405180910390f35b3480156101cb57600080fd5b506103cb600480360360c08110156101e257600080fd5b81019080803590602001906401000000008111156101ff57600080fd5b82018360208201111561021157600080fd5b8035906020019184600183028401116401000000008311171561023357600080fd5b91908080601f016020809104026020016040519081016040528093929190818152602001838380828437600081840152601f19601f8201169050808301925050505050505091929192908035906020019064010000000081111561029657600080fd5b8201836020820111156102a857600080fd5b803590602001918460208302840111640100000000831117156102ca57600080fd5b919080806020026020016040519081016040528093929190818152602001838360200280828437600081840152601f19601f8201169050808301925050505050505091929192908035906020019064010000000081111561032a57600080fd5b82018360208201111561033c57600080fd5b8035906020019184602083028401116401000000008311171561035e57600080fd5b919080806020026020016040519081016040528093929190818152602001838360200280828437600081840152601f19601f8201169050808301925050505050505091929192908035906020019092919080359060200190929190803590602001909291905050506106fd565b005b600060016000838152602001908152602001600020600201805490509050919050565b60008054905090565b826001600082815260200190815260200160002060040154600160008381526020019081526020016000206005015410151561049d576040517f08c379a000000000000000000000000000000000000000000000000000000000815260040180806020018281038252601d8152602001807f416c6c206f662074686520766f74657273206861766520766f7465642e00000081525060200191505060405180910390fd5b8382600015156001600084815260200190815260200160002060090160008373ffffffffffffffffffffffffffffffffffffffff1673ffffffffffffffffffffffffffffffffffffffff16815260200190815260200160002060009054906101000a900460ff16151514151561057b576040517f08c379a00000000000000000000000000000000000000000000000000000000081526004018080602001828103825260178152602001807f557365722068616420616c726561647920766f7465642e00000000000000000081525060200191505060405180910390fd5b6001600087815260200190815260200160002060050160008154809291906001019190505550600180600088815260200190815260200160002060090160008673ffffffffffffffffffffffffffffffffffffffff1673ffffffffffffffffffffffffffffffffffffffff16815260200190815260200160002060006101000a81548160ff02191690831515021790555060016000878152602001908152602001600020600a01600086815260200190815260200160002060020160008154809291906001019190505550505050505050565b60008060008060016000878152602001908152602001600020600a0160008681526020019081526020016000206001015460016000888152602001908152602001600020600a016000878152602001908152602001600020600201546001600089815260200190815260200160002060050154600160008a8152602001908152602001600020600a01600089815260200190815260200160002060000154935093509350935092959194509250565b601460ff16600054111515156107a1576040517f08c379a00000000000000000000000000000000000000000000000000000000081526004018080602001828103825260278152602001807f596f752068617665207265616368656420746865206d617820656c656374696f81526020017f6e20636f756e740000000000000000000000000000000000000000000000000081525060400191505060405180910390fd5b600033905060008054905061014060405190810160405280828152602001898152602001888152602001878152602001868152602001600081526020018373ffffffffffffffffffffffffffffffffffffffff1681526020016001151581526020018581526020018481525060016000838152602001908152602001600020600082015181600001556020820151816001019080519060200190610846929190610a33565b506040820151816002019080519060200190610863929190610ab3565b506060820151816003019080519060200190610880929190610b00565b506080820151816004015560a0820151816005015560c08201518160060160006101000a81548173ffffffffffffffffffffffffffffffffffffffff021916908373ffffffffffffffffffffffffffffffffffffffff16021790555060e08201518160060160146101000a81548160ff0219169083151502179055506101008201518160070155610120820151816008015590505060008090505b875181101561097757878181518110151561093257fe5b9060200190602002015160016000848152602001908152602001600020600a01600083815260200190815260200160002060010181905550808060010191505061091b565b5060008090505b8651811015610a1757600060016000848152602001908152602001600020600901600089848151811015156109af57fe5b9060200190602002015173ffffffffffffffffffffffffffffffffffffffff1673ffffffffffffffffffffffffffffffffffffffff16815260200190815260200160002060006101000a81548160ff021916908315150217905550808060010191505061097e565b5060008081548092919060010191905055505050505050505050565b828054600181600116156101000203166002900490600052602060002090601f016020900481019282601f10610a7457805160ff1916838001178555610aa2565b82800160010185558215610aa2579182015b82811115610aa1578251825591602001919060010190610a86565b5b509050610aaf9190610b8a565b5090565b828054828255906000526020600020908101928215610aef579160200282015b82811115610aee578251825591602001919060010190610ad3565b5b509050610afc9190610baf565b5090565b828054828255906000526020600020908101928215610b79579160200282015b82811115610b785782518260006101000a81548173ffffffffffffffffffffffffffffffffffffffff021916908373ffffffffffffffffffffffffffffffffffffffff16021790555091602001919060010190610b20565b5b509050610b869190610bd4565b5090565b610bac91905b80821115610ba8576000816000905550600101610b90565b5090565b90565b610bd191905b80821115610bcd576000816000905550600101610bb5565b5090565b90565b610c1491905b80821115610c1057600081816101000a81549073ffffffffffffffffffffffffffffffffffffffff021916905550600101610bda565b5090565b9056fea165627a7a72305820ff4a23b4f36165173a479f386139d511bdddd40a6ff99c7299ab473de689093d0029",
  "source": "pragma solidity ^0.5.0;\n\ncontract Denemeler {\n\tuint8 constant MAX_ELECTION_COUNT = 20;\n\tuint electionCount = 0;\n\n\tstruct Election {\n\t\tuint \t\tid;\n\t\tstring \t\ttitle;\n\t\tbytes32[] \tcandidates;\n\t\taddress[] \tvotersAddr;\n\t\tuint \t\tvoterCount;\n\t\tuint \t\tnumOfUsedVotes;\n\t\taddress \torganizer;\n\t\tbool \t\tactive;\n\n\t\t// Unix timestamps\n\t\tuint start;\n\t\tuint end;\n\n\t\tmapping(address => bool) voters;\n\t\t// `uint` represents candidate ID\n\t\tmapping(uint => Candidate) cands;\n\t}\n\n\tstruct Candidate {\n\t\tuint \tid;\n        bytes32\tname;\n        uint\tvoteCount;\n    }\n\n\tmapping(uint => Election) elections;\n\n\tmodifier isOrganizerOfElec(uint _elecID) {\n\t\trequire(msg.sender == elections[_elecID].organizer, \"Auth error: Only organizer could do that\");\n\t\t_;\n\t}\n\n\tmodifier checkElectionCount() {\n\t\trequire(electionCount <= MAX_ELECTION_COUNT, \"You have reached the max election count\");\n\t\t_;\n\t}\n\n\tmodifier isActive(uint _elecID) {\n\t\trequire(elections[_elecID].start < now && elections[_elecID].end > now, \"Election was ended.\");\n\t\t_;\n\t}\n\n\tmodifier checkVoterCount(uint _elecID) {\n\t\trequire(elections[_elecID].numOfUsedVotes < elections[_elecID].voterCount, \"All of the voters have voted.\");\n\t\t_;\n\t}\n\n\tmodifier hasVoted(uint _elecID, address _voter) {\n\t\trequire(elections[_elecID].voters[_voter] == false, \"User had already voted.\");\n\t\t_;\n\t}\n\n\t// 0x44656e656d65 -> Hex converted version of `Deneme`\n\t// [FIXED] WARNING: You can create an election with same ID.\n\t// Before creating an election it checks whether electionCount is less than `10` or not.\n\tfunction createElection(string memory _title, bytes32[] memory _candNames, address[] memory _voters,\n\t\tuint _voterCount, uint _start, uint _end) public checkElectionCount\n\t{\n\t\taddress organizer = msg.sender;\n\t\tuint _electionID = electionCount;\n\n\t\telections[_electionID] = Election(_electionID, _title, _candNames, _voters, _voterCount, 0, organizer, true, _start, _end);\n\n\t\tfor (uint256 i = 0; i < _candNames.length; i++) {\n\t\t \telections[_electionID].cands[i].name = _candNames[i];\n\t\t}\n\n\t\t// Save all voters to the contract. Set voted status to `false`\n\t\tfor (uint256 i = 0; i < _voters.length; i++) {\n\t\t\telections[_electionID].voters[_voters[i]] = false;\n\t\t}\n\n\t\telectionCount++;\n\t}\n\n\tfunction vote(uint _elecID, uint _candId, address _voter) public // isActive(_elecID)\n\t\tcheckVoterCount(_elecID) hasVoted(_elecID, _voter)\n\t{\n\t\telections[_elecID].numOfUsedVotes++;\n\t\telections[_elecID].voters[_voter] = true;\n\t\telections[_elecID].cands[_candId].voteCount++;\n\t}\n\n\tfunction getNextElectionId() public view returns (uint) {\n\t\treturn electionCount;\n\t}\n\n\tfunction getCandidateName(uint _elecID, uint _candidateID) public view returns (bytes32,uint,uint,uint) {\n        return (elections[_elecID].cands[_candidateID].name,elections[_elecID].cands[_candidateID].voteCount,\n\t\t\telections[_elecID].numOfUsedVotes,elections[_elecID].cands[_candidateID].id);\n    }\n\n    function getCandidateCount(uint _elecID) public view returns (uint) {\n\t\treturn elections[_elecID].candidates.length;\n    }\n\n\t// function getCandidateVoteCount(uint _elecID, bytes32 _candidateName) public view returns(uint) {\n\t// \treturn elections[_elecID].cands[_candidateName];\n\t// \treturn elections[_elecID].candidates[_candidateID].voteCount;\n\t// }\n}",
  "sourcePath": "/home/canyu/go/src/github.com/mucanyu/oyla/contracts/Denemeler.sol",
  "compiler": {
    "name": "solc",
    "version": "0.5.0+commit.1d4f565a.Emscripten.clang"
  },
  "schemaVersion": "3.0.1",
  "updatedAt": "2019-05-16T23:22:38.065Z",
  "devdoc": {
    "methods": {}
  },
  "userdoc": {
    "methods": {}
  }
}